:10260000028E8F008F828E83E0540100000070F8EC
:102610002278FFE4F6D8FD028F1D90044FEBF0A363
:10262000EAF0A3E9F090044FE0FBA3E0FAA3E0F89E
:10263000AC02AD037BFF7A6479F01263FE900489EB
:1026400074FFF0A37464F0A374F1F090044FE0FB06
:10265000A3E0FAA3E0F9129FB890048974FFF0A3F5
:102660007464F0A374F4F090044FE0FBA3E0FAA3C9
:10267000E0F9129FB890048974FFF0A37465F0A389
:102680007407F090044FE0FBA3E0FAA3E0F9129F77
:10269000B890048974FFF0A37465F0A37414F090EB
:1026A000044FE0FBA3E0FAA3E0F9129FB89004897D
:1026B00074FFF0A37465F0A3741AF090044FE0FB6C
:1026C000A3E0FAA3E0F9129FB890048974FFF0A385
:1026D0007465F0A37428F0900938E0FF90048CE44E
:1026E000F0A3EFF07B017A047954126FB49004895F
:1026F0007401F0A37404F0A37454F090044FE0FB51
:10270000A3E0FAA3E0F9129FB890048974FFF0A344
:102710007465F0A37431F0A3E4F0A37403F07B01BB
:102720007A047954126FB49004897401F0A374048C
:10273000F0A37454F090044FE0FBA3E0FAA3E0F997
:10274000129FB890048974FFF0A37465F0A37449D4
:10275000F0900B74E0FF90048CE4F0A3EFF07B01A9
:102760007A047954126FB49004897401F0A374044C
:10277000F0A37454F090044FE0FBA3E0FAA3E0F957
:10278000129FB890048974FFF0A37464F0A374F1ED
:10279000F090044FE0FBA3E0FAA3E0F9129FB89099
:1027A000048974FFF0A37465F0A37459F090044F8A
:1027B000E0FBA3E0FAA3E0F9129FB890048974FF4C
:1027C000F0A37465F0A37466F090044FE0FBA3E0FF
:1027D000FAA3E0F9129FB89009F5E014604C146078
:1027E0002B14600A14606114605E240570769004F6
:1027F0008974FFF0A37465F0A37477F090044FE040
:10280000FBA3E0FAA3E0F9129FB880589004897402
:10281000FFF0A37465F0A37485F090044FE0FBA370
:10282000E0FAA3E0F9129FB8803A90048974FFF0AF
:10283000A37465F0A37493F090044FE0FBA3E0FA57
:10284000A3E0F9129FB8801C90048974FFF0A37470
:1028500065F0A3749CF090044FE0FBA3E0FAA3E0C2
:10286000F9129FB8E4900452F0A3F0C3900453E02F
:102870009402900452E0648094804003022A7A908B
:1028800009F5E06402705F90048974FFF0A3746539
:10289000F0A374ABF0900452E0FEA3E07802C333DF
:1028A000CE33CED8F92468F582740A3EF583E0A3CE
:1028B000E0A3E0FFA3E090048CCFF0A3EFF07B0156
:1028C0007A047954126FB49004897401F0A37404EB
:1028D000F0A37454F090044FE0FBA3E0FAA3E0F9F6
:1028E000129FB8022A699009F5E06401705F9004B4
:1028F0008974FFF0A37465F0A374ABF0900452E008
:10290000FEA3E07802C333CE33CED8F92470F5822B
:10291000740A3EF583E0A3E0A3E0FFA3E090048CFB
:10292000CFF0A3EFF07B017A047954126FB49004D6
:10293000897401F0A37404F0A37454F090044FE080
:10294000FBA3E0FAA3E0F9129FB8022A699009F507
:10295000E0FF64056008EF640460030229F290045C
:102960008974FFF0A37465F0A374ABF0900452E097
:10297000FEA3E07802C333CE33CED8F92460F582CB
:10298000740A3EF583E0A3E0A3E0FEA3E0FBAA0601
:10299000900B2BE0A3E0A3E0FEA3E0FFEB2FFFEA08
:1029A0003EFE900452E0FCA3E0246EF58274093CE4
:1029B000F583E0FDEFA805088006CEA2E713CE134D
:1029C000D8F8FF90048CEEF0A3EFF07B017A047945
:1029D00054126FB49004897401F0A37404F0A374CA
:1029E00054F090044FE0FBA3E0FAA3E0F9129FB883
:1029F000807790048974FFF0A37465F0A374ABF042
:102A0000900452E0FAA3E0FBAE027802C333CE3367
:102A1000CED8F92460F582740A3EF583E0FCA3E089
:102A2000FDA3E0FEA3E0FF746E2BF58274093AF576
:102A300083E0F9F8126148C3E49FFFE49E90048CA0
:102A4000F0A3EFF07B017A047954126FB4900489FB
:102A50007401F0A37404F0A37454F090044FE0FBED
:102A6000A3E0FAA3E0F9129FB8900453E004F070D9
:102A700006900452E004F002286B90048974FFF081
:102A8000A37464F0A374F1F090044FE0FBA3E0FAA8
:102A9000A3E0F9129FB890048974FFF0A37465F065
:102AA000A374AFF07B017A047954126FB49009BE1D
:102AB000E05403601990048974FFF0A37465F0A3D7
:102AC00074BFF07B017A047954129FB88017900488
:102AD0008974FFF0A37465F0A374C5F07B017A04D8
:102AE0007954129FB89004897401F0A37404F0A380
:102AF0007454F090044FE0FBA3E0FAA3E0F9129FB6
:102B0000B890048974FFF0A37465F0A374CAF090C0
:102B1000044FE0FBA3E0FAA3E0F9129FB890048908
:102B200074FFF0A37465F0A374E0F090044FE0FB31
:102B3000A3E0FAA3E0F9129FB8E4900452F0A3F0E6
:102B4000C3900453E09403900452E0648094804066
:102B500003022C0990048974FFF0A37465F0A37438
:102B6000F0F0900452E0FCA3E0FD2401FEE43C9070
:102B7000048CF0A3CEF0EDAE047802C333CE33CE96
:102B8000D8F92423F582740B3EF583E0FCA3E0FD25
:102B9000A3E0FEA3E0FF900452E0FAA3E0246EF568
:102BA0008274093AF583E0F9F812614812610090E5
:102BB000048EEEF0A3EFF07B017A047954126FB427
:102BC0009004897401F0A37404F0A37454F0900489
:102BD0004FE0FBA3E0FAA3E0F9129FB890048974D8
:102BE000FFF0A37464F0A374F1F090044FE0FBA332
:102BF000E0FAA3E0F9129FB8900453E004F07006E5
:102C0000900452E004F0022B4090048974FFF0A37A
:102C10007465F0A374F9F0900A5CE0FCA3E0FDA3F6
:102C2000E0FEA3E0FF90048C1261C17B017A04797D
:102C300054126FB49004897401F0A37404F0A37467
:102C400054F090044FE0FBA3E0FAA3E0F9129FB820
:102C500090048974FFF0A37464F0A374F1F09004FD
:102C60004FE0FBA3E0FAA3E0F9129FB89004897447
:102C7000FFF0A37466F0A3740BF0900B2FE0FCA39D
:102C8000E0FDA3E0FEA3E0FF90048C1261C17B0194
:102C90007A047954126FB49004897401F0A3740417
:102CA000F0A37454F090044FE0FBA3E0FAA3E0F922
:102CB000129FB890048974FFF0A37464F0A374F1B8
:102CC000F090044FE0FBA3E0FAA3E0F9129FB89064
:102CD000048974FFF0A37466F0A3741FF0900B33A3
:102CE000E0FCA3E0FDA3E0FEA3E0FF90048C1261F2
:102CF000C17B017A047954126FB49004897401F095
:102D0000A37404F0A37454F090044FE0FBA3E0FA22
:102D1000A3E0F9129FB890048974FFF0A37464F0E3
:102D2000A374F1F090044FE0FBA3E0FAA3E0F912E2
:102D30009FB890048974FFF0A37466F0A37433F015
:102D400090044FE0FBA3E0FAA3E0F9129FB89004CF
:102D50008974FFF0A37466F0A37449F090044FE007
:102D6000FBA3E0FAA3E0F9129FB890096DE0FF64BD
:102D7000037003022E80EF64057003022E8090041E
:102D80008974FFF0A37466F0A3745BF0900939E0D6
:102D9000FCA3E0FDA3E0FEA3E0FFEC125BF6E4FB86
:102DA000FA79807847125AE090048C1261C17B0155
:102DB0007A047954126FB49004897401F0A37404F6
:102DC000F0A37454F090044FE0FBA3E0FAA3E0F901
:102DD000129FB890048974FFF0A37466F0A3746521
:102DE000F090093DE0FCA3E0FDA3E0FEA3E0FFECD2
:102DF000125BF6E4FBFA79807847125AE090048C73
:102E00001261C17B017A047954126FB49004897401
:102E100001F0A37404F0A37454F090044FE0FBA3FA
:102E2000E0FAA3E0F9129FB890048974FFF0A3744C
:102E300066F0A3746FF0900941E0FCA3E0FDA3E00D
:102E4000FEA3E0FFEC125BF6E4FBFA798078471210
:102E50005AE090048C1261C17B017A047954126F9C
:102E6000B49004897401F0A37404F0A37454F09036
:102E7000044FE0FBA3E0FAA3E0F9129FB8022F7F12
:102E800090048974FFF0A37466F0A3745BF090095A
:102E900051E0FCA3E0FDA3E0FEA3E0FFEC125BF633
:102EA000E4FBFA79807847125AE090048C1261C1F1
:102EB0007B017A047954126FB49004897401F0A3F1
:102EC0007404F0A37454F090044FE0FBA3E0FAA361
:102ED000E0F9129FB890048974FFF0A37466F0A320
:102EE0007465F0900955E0FCA3E0FDA3E0FEA3E0CB
:102EF000FFEC125BF6E4FBFA79807847125AE09017
:102F0000048C1261C17B017A047954126FB490046D
:102F1000897401F0A37404F0A37454F090044FE09A
:102F2000FBA3E0FAA3E0F9129FB890048974FFF0C4
:102F3000A37466F0A3746FF0900959E0FCA3E0FD60
:102F4000A3E0FEA3E0FFEC125BF6E4FBFA798078E5
:102F500047125AE090048C1261C17B017A047954C3
:102F6000126FB49004897401F0A37404F0A3745434
:102F7000F090044FE0FBA3E0FAA3E0F9129FB890B1
:102F8000048974FFF0A37466F0A37479F090044F81
:102F9000E0FBA3E0FAA3E0F9129FB890096DE0FF0F
:102FA000640370030230B1EF640570030230B19026
:102FB000048974FFF0A37466F0A3745BF090094574
:102FC000E0FCA3E0FDA3E0FEA3E0FFEC125BF6E46F
:102FD000FBFA79807847125AE090048C1261C17B29
:102FE000017A047954126FB49004897401F0A374C7
:102FF00004F0A37454F090044FE0FBA3E0FAA3E0C4
:10300000F9129FB890048974FFF0A37466F0A3745A
:1030100065F0900949E0FCA3E0FDA3E0FEA3E0FF1A
:10302000EC125BF6E4FBFA79807847125AE09004E0
:103030008C1261C17B017A047954126FB4900489B7
:103040007401F0A37404F0A37454F090044FE0FBF7
:10305000A3E0FAA3E0F9129FB890048974FFF0A3EB
:103060007466F0A3746FF090094DE0FCA3E0FDA33B
:10307000E0FEA3E0FFEC125BF6E4FBFA7980784710
:10308000125AE090048C1261C17B017A04795412C7
:103090006FB49004897401F0A37404F0A37454F025
:1030A00090044FE0FBA3E0FAA3E0F9129FB80231CD
:1030B000B090048974FFF0A37466F0A3745BF09081
:1030C000095DE0FCA3E0FDA3E0FEA3E0FFEC125BE2
:1030D000F6E4FBFA79807847125AE090048C12618A
:1030E000C17B017A047954126FB49004897401F0A1
:1030F000A37404F0A37454F090044FE0FBA3E0FA2F
:10310000A3E0F9129FB890048974FFF0A37466F0ED
:10311000A37465F0900961E0FCA3E0FDA3E0FEA3C9
:10312000E0FFEC125BF6E4FBFA79807847125AE094
:1031300090048C1261C17B017A047954126FB490AF
:1031400004897401F0A37404F0A37454F090044F44
:10315000E0FBA3E0FAA3E0F9129FB890048974FFA2
:10316000F0A37466F0A3746FF0900965E0FCA3E02F
:10317000FDA3E0FEA3E0FFEC125BF6E4FBFA79802E
:103180007847125AE090048C1261C17B017A04796D
:1031900054126FB49004897401F0A37404F0A37402
:1031A00054F090044FE0FBA3E0FAA3E0F9129FB8BB
:1031B00090048974FFF0A37464F0A374F1F0900498
:1031C0004FE0FBA3E0FAA3E0F9129FB890096BE08F
:1031D000B4031E90048974FFF0A37466F0A3749383
:1031E000F090044FE0FBA3E0FAA3E0F9129FB8804F
:1031F0001C90048974FFF0A37466F0A374ADF09082
:10320000044FE0FBA3E0FAA3E0F9129FB890096C29
:10321000E014602104703A90048974FFF0A374668E
:10322000F0A374C6F090044FE0FBA3E0FAA3E0F92A
:10323000129FB8801C90048974FFF0A37466F0A3F9
:1032400074D8F090044FE0FBA3E0FAA3E0F9129FDA
:10325000B890048974FFF0A37466F0A374EFF09043
:10326000044FE0FBA3E0FAA3E0F9129FB890096DC8
:10327000E014603814605314606E14700302330657
:103280001470030233242405600302334090048940
:1032900074FFF0A37466F0A374FEF090044FE0FB9B
:1032A000A3E0FAA3E0F9129FB802334090048974B6
:1032B000FFF0A37467F0A37409F090044FE0FBA340
:1032C000E0FAA3E0F9129FB8807690048974FFF0C9
:1032D000A37467F0A3740FF090044FE0FBA3E0FA2F
:1032E000A3E0F9129FB8805890048974FFF0A3748A
:1032F00067F0A37419F090044FE0FBA3E0FAA3E099
:10330000F9129FB8803A90048974FFF0A37467F0B3
:10331000A37430F090044FE0FBA3E0FAA3E0F912AD
:103320009FB8801C90048974FFF0A37467F0A374A5
:103330003DF090044FE0FBA3E0FAA3E0F9129FB840
:1033400090048974FFF0A37467F0A37456F090049E
:103350004FE0FBA3E0FAA3E0F9129FB8E490045217
:10336000F0A3F0C3900453E09403900452E064800F
:10337000948040030233FF90048974FFF0A37465C6
:10338000F0A374F0F0900452E0FCA3E0FD2401FEF1
:10339000E43C90048CF0A3CEF0746E2DF582740999
:1033A0003CF583E0FF90048EE4F0A3EFF07B017A1C
:1033B000047954126FB49004897401F0A37404F07A
:1033C000A37454F090044FE0FBA3E0FAA3E0F912D9
:1033D0009FB890048974FFF0A37464F0A374F1F0B3
:1033E00090044FE0FBA3E0FAA3E0F9129FB8900429
:1033F00053E004F07006900452E004F0023363904E
:10340000048974FFF0A37467F0A3746BF090044F09
:10341000E0FBA3E0FAA3E0F9129FB8E4900452F0B5
:10342000A3F0900452E0FEA3E0FFC39403EE648097
:1034300094804003023559EF64024E706C90048909
:1034400074FFF0A37467F0A37481F0900452E0FC61
:10345000A3E0FD2401FEE43C90048CF0A3CEF0ED4B
:10346000AE047802C333CE33CED8F92471F582741A
:10347000093EF583E0FCA3E0FDA3E0FEA3E0FF121C
:103480006100900452E0FAA3E0246EF58274093AD8
:10349000F583E0F9F812614890048E1261C17B0156
:1034A0007A047954126FB4806790048974FFF0A392
:1034B0007467F0A37481F0900452E0FCA3E0FD2453
:1034C00001FEE43C90048CF0A3CEF0EDAE04780253
:1034D000C333CE33CED8F92471F58274093EF58317
:1034E000E0FCA3E0FDA3E0FEA3E0FF900452E0FABD
:1034F000A3E0246EF58274093AF583E0F9F81261CD
:103500004890048E1261C17B017A047954126FB421
:103510009004897401F0A37404F0A37454F090042F
:103520004FE0FBA3E0FAA3E0F9129FB8900489747E
:10353000FFF0A37464F0A374F1F090044FE0FBA3D8
:10354000E0FAA3E0F9129FB8900453E004F070068B
:10355000900452E004F002342290048974FFF0A336
:103560007467F0A3748BF090044FE0FBA3E0FAA320
:10357000E0F9129FB8E4900452F0A3F0C390045312
:10358000E09403900452E064809480400302362A61
:1035900090048974FFF0A37467F0A374A5F09004FD
:1035A00052E0FCA3E0FD2401FEE43C90048CF0A377
:1035B000CEF0EDAE047802C333CE33CED8F9247DFD
:1035C000F58274093EF583E0FCA3E0FDA3E0FEA3D1
:1035D000E0FF90048E1261C17B017A047954126F6E
:1035E000B49004897401F0A37404F0A37454F090AF
:1035F000044FE0FBA3E0FAA3E0F9129FB89004891E
:1036000074FFF0A37464F0A374F1F090044FE0FB36
:10361000A3E0FAA3E0F9129FB8900453E004F0701D
:1036200006900452E004F002357C90048974FFF0A7
:10363000A37467F0A374AEF0900A11E0FF90048CBD
:10364000E4F0A3EFF07B017A047954126FB4900494
:10365000897401F0A37404F0A37454F090044FE053
:10366000FBA3E0FAA3E0F9129FB890048974FFF07D
:10367000A37464F0A374F1F090044FE0FBA3E0FAAC
:10368000A3E0F9129FB8E4900452F0A3F0C39004B1
:1036900053E09402900452E0648094804003023727
:1036A000A590048974FFF0A37467F0A374C8F09028
:1036B0000452E0FCA3E0FD2401FEE43C90048CF005
:1036C000A3CEF0EDAE047802C333CE33CED8F924C6
:1036D00012F582740A3EF583E0FCA3E0FDA3E0FE50
:1036E000A3E0FF900452E0FAA3E024F6F582740907
:1036F0003AF583E0F9F812614890048E1261C17BBB
:10370000017A047954126FB49004897401F0A3749F
:1037100004F0A37454F090044FE0FBA3E0FAA3E09C
:10372000F9129FB890048974FFF0A37467F0A37432
:10373000EEF0900452E0FAA3E0FBAE027802C3334D
:10374000CE33CED8F9241AF582740A3EF583E0FC14
:10375000A3E0FDA3E0FEA3E0FF74F62BF58274095D
:103760003AF583E0F9F812614890048C1261C17B4C
:10377000017A047954126FB49004897401F0A3742F
:1037800004F0A37454F090044FE0FBA3E0FAA3E02C
:10379000F9129FB8900453E004F07006900452E0D0
:1037A00004F002368D90048974FFF0A37467F0A3CF
:1037B00074FBF0900A22E0FEA3E0FF9009F6E0FD22
:1037C000EFA805088006CEA2E713CE13D8F8FF9025
:1037D000048CEEF0A3EFF07B017A047954126FB4FD
:1037E0009004897401F0A37404F0A37454F090045D
:1037F0004FE0FBA3E0FAA3E0F9129FB890048974AC
:10380000FFF0A37464F0A374F1F090044FE0FBA305
:10381000E0FAA3E0F9129FB890048974FFF0A37452
:1038200068F0A3740DF09009F1E0FFA3E090048C20
:10383000CFF0A3EFF07B017A047954126FB49004B7
:10384000897401F0A37404F0A37454F090044FE061
:10385000FBA3E0FAA3E0F9129FB890048974FFF08B
:10386000A37464F0A374F1F090044FE0FBA3E0FABA
:10387000A3E0F9129FB890048974FFF0A37468F074
:10388000A3741FF0900A58E0F8A3E0F9A3E0FAA3AC
:10389000E0FB900B17E0FCA3E0FDA3E0FEA3E0C378
:1038A0009BFFEE9AFEED99FDEC98FC90048C126162
:1038B000C17B017A047954126FB49004897401F0C9
:1038C000A37404F0A37454F090044FE0FBA3E0FA57
:1038D000A3E0F9129FB890048974FFF0A37464F018
:1038E000A374F1F090044FE0FBA3E0FAA3E0F91217
:1038F0009FB822900003EEF0A3EFF0A37404F0A3AE
:10390000747FF0780C7C007D017BFF7A68792A7ED9
:10391000007F0F126320781B7C007D017BFF7A689B
:1039200079397E007F1C12632078377C007D017B13
:10393000FF7A6879557E007F1B12632078527C00E5
:103940007D017BFF7A6879707E007F1C126320788E
:103950006E7C007D017BFF7A68798C7E007F1B1274
:10396000632078897C007D017BFF7A6879A77E00DF
:103970007F2712632078B07C007D017BFF7A687915
:10398000CE7E007F1112632078C17C007D017BFF19
:103990007A6879DF7E007F1912632078DA7C007DF7
:1039A000017BFF7A6879F87E007F1112632078EB43
:1039B0007C007D017BFF7A6979097E007F1C1263A0
:1039C0002078077C017D017BFF7A6979257E007F65
:1039D0001D12632078247C017D017BFF7A69794286
:1039E0007E007F1B126320783F7C017D017BFF7A84
:1039F00069795D7E007F1412632078537C017D011C
:103A00007BFF7A6979717E007F3412632078877C2E
:103A1000017D017BFF7A6979A57E007F63126320B7
:103A200078EA7C017D017BFF7A6A79087E007F2A33
:103A30001263207B017A00790C12AC508F707B01ED
:103A40007A00791B12AC508F717B017A00793712A2
:103A5000AC508F727B017A0079B012AC508F737BBF
:103A6000017A0079C112AC508F747B017A0079DA47
:103A700012AC508F757B017A01790712AC508F76AA
:103A80007B017A01793F12AC508F777B017A017903
:103A90005312AC508F787B017A01798712AC508F2A
:103AA000797B017A01795312AC508F7A9004B67405
:103AB0000CF0A304F0900003E0FEA3E0FFEE60032F
:103AC000024A40EFB40E004003024A40903AD3F855
:103AD000282873023AFD02456702457002464502F6
:103AE000471A02472302472C02473502476E024815
:103AF000190248800248890249AE024A319004B84E
:103B00007402F0A314F0900938E09004BAF0756ED6
:103B10000085706FE56F456E602CC3E570956FFF93
:103B2000E4956EFE740C2FF58274003EF583E0FD83
:103B300074BB2FF58274043EF583EDF0E56F156FCD
:103B40007002156E80CE9004EA7407F0A37403F03F
:103B500090096DE06403606DE06405606890093968
:103B6000E0FCA3E0FDA3E0FEA3E0FFEC125BF6E4C3
:103B7000FBFA79807847125AE09004EC1261C19008
:103B8000093DE0FCA3E0FDA3E0FEA3E0FFEC125B37
:103B9000F6E4FBFA79807847125AE09004F012615B
:103BA000C1900941E0FCA3E0FDA3E0FEA3E0FFEC2F
:103BB000125BF6E4FBFA79807847125AE09004F43D
:103BC0001261C18066900951E0FCA3E0FDA3E0FE14
:103BD000A3E0FFEC125BF6E4FBFA79807847125A17
:103BE000E09004EC1261C1900955E0FCA3E0FDA354
:103BF000E0FEA3E0FFEC125BF6E4FBFA7980784785
:103C0000125AE09004F01261C1900959E0FCA3E05F
:103C1000FDA3E0FEA3E0FFEC125BF6E4FBFA798083
:103C20007847125AE09004F41261C1756E008571F4
:103C30006FE56F456E602CC3E571956FFFE4956E7F
:103C4000FE741B2FF58274003EF583E0FD74F82F9F
:103C5000F58274043EF583EDF0E56F156F70021583
:103C60006E80CE90051C7407F0A37403F090096D6C
:103C7000E06403606DE064056068900945E0FCA3C2
:103C8000E0FDA3E0FEA3E0FFEC125BF6E4FBFA79B3
:103C9000807847125AE090051E1261C1900949E0F0
:103CA000FCA3E0FDA3E0FEA3E0FFEC125BF6E4FB67
:103CB000FA79807847125AE09005221261C1900982
:103CC0004DE0FCA3E0FDA3E0FEA3E0FFEC125BF6F9
:103CD000E4FBFA79807847125AE09005261261C118
:103CE000806690095DE0FCA3E0FDA3E0FEA3E0FF99
:103CF000EC125BF6E4FBFA79807847125AE0900503
:103D00001E1261C1900961E0FCA3E0FDA3E0FEA3E7
:103D1000E0FFEC125BF6E4FBFA79807847125AE098
:103D20009005221261C1900965E0FCA3E0FDA3E0CB
:103D3000FEA3E0FFEC125BF6E4FBFA798078471211
:103D40005AE09005261261C1756E0085726FE56FAD
:103D5000456E602CC3E572956FFFE4956EFE743777
:103D60002FF58274003EF583E0FD742A2FF58274EE
:103D7000053EF583EDF0E56F156F7002156E80CE90
:103D8000E490054EF0A304F090096BE0900550F02C
:103D900090096B601F90048974FFF0A37464F0A312
:103DA000747BF07B017A007952129FB890000774FF
:103DB0001CF0801D90048974FFF0A37464F0A37458
:103DC00081F07B017A007952129FB8900007741B32
:103DD000F0900007E0756E00F56FE56F456E602EA0
:103DE000900007E0C3956FFFE4956EFE74522FF5C7
:103DF0008274003EF583E0FD74512FF58274053E18
:103E0000F583EDF0E56F156F7002156E80CC9000B4
:103E100007E02451F582E43405F5837403F0E4905F
:103E20000580F0A304F090096CE0900582F0900901
:103E30006C14602204703C90048974FFF0A37464D5
:103E4000F0A37486F07B017A00796E129FB890001F
:103E5000077414F0801D90048974FFF0A37464F05B
:103E6000A3748CF07B017A00796E129FB8900007E2
:103E7000741AF0900007E0756E00F56FE56F456EFF
:103E8000602E900007E0C3956FFFE4956EFE746EA0
:103E90002FF58274003EF583E0FD74832FF5827464
:103EA000053EF583EDF0E56F156F7002156E80CC61
:103EB000900007E02483F582E43405F5837401F073
:103EC000E49005B2F0A304F090096DE09005B4F021
:103ED00090096D14603914605514607114700302F8
:103EE0003F6C147003023F8B24056003023FA890CF
:103EF000048974FFF0A37464F0A37498F07B017AD2
:103F0000007989129FB8900007741BF0023FA890B7
:103F1000048974FFF0A37464F0A374A3F07B017AA6
:103F2000007989129FB89000077416F0807A900487
:103F30008974FFF0A37464F0A374A9F07B017A0084
:103F40007989129FB8900007741AF0805B900489F9
:103F500074FFF0A37464F0A374B3F07B017A00796A
:103F600089129FB89000077427F0803C90048974F0
:103F7000FFF0A37464F0A374CAF07B017A0079891E
:103F8000129FB8900007741DF0801D90048974FF83
:103F9000F0A37464F0A374D7F07B017A00798912DE
:103FA0009FB89000077429F0900007E0756E00F547
:103FB0006FE56F456E602E900007E0C3956FFFE4DC
:103FC000956EFE74892FF58274003EF583E0FD74D2
:103FD000B52FF58274053EF583EDF0E56F156F7032
:103FE00002156E80CC900007E024B5F582E434051C
:103FF000F5837402F09005E4F0A304F0E4F56EF5A7
:104000006FC3E56F9403E56E94005026746E256FC0
:10401000F5827409356EF583E0FF74E6256FF5824D
:104020007405356EF583EFF0056FE56F7002056E70
:1040300080CF756E0085736FE56F456E602CC3E5AC
:1040400073956FFFE4956EFE74B02FF58274003E99
:10405000F583E0FD74E92FF58274053EF583EDF0FC
:10406000E56F156F7002156E80CE9006167403F022
:10407000A3F0E4F56EF56FC3E56F9403E56E94006D
:10408000400302413BE56F6402456E6054E56FAE4C
:104090006E7802C333CE33CED8F92471F582740919
:1040A0003EF583E0FCA3E0FDA3E0FEA3E0FF746E19
:1040B000256FF5827409356EF583E0F9F8126148D1
:1040C000126100AD07AC06E56F25E0FFE56E33FE3B
:1040D00074182FF58274063EF583ECF0A3EDF080A2
:1040E0004FE56FAE6E7802C333CE33CED8F924716C
:1040F000F58274093EF583E0FCA3E0FDA3E0FEA396
:10410000E0FF746E256FF5827409356EF583E0F972
:10411000F8126148AD07AC06E56F25E0FFE56E33A8
:10412000FE74182FF58274063EF583ECF0A3EDF0D3
:10413000056FE56F7002056E024077756E0085743D
:104140006FE56F456E602CC3E574956FFFE4956E67
:10415000FE74C12FF58274003EF583E0FD741E2FBE
:10416000F58274063EF583EDF0E56F156F7002156C
:104170006E80CE9006487407F0A37403F0E4F56EE9
:10418000F56FC3E56F9403E56E94005054E56FAE90
:104190006E7802C333CE33CED8F9247DF58274090C
:1041A0003EF583E0FCA3E0FDA3E0FEA3E0FFC00436
:1041B000C005C006C007E56FAE6E7802C333CE33CC
:1041C000CED8F9244AF58274063EF583D007D0068E
:1041D000D005D0041261C1056FE56F7002056E80D5
:1041E000A1756E0085756FE56F456E602CC3E57532
:1041F000956FFFE4956EFE74DA2FF58274003EF53C
:1042000083E0FD74562FF58274063EF583EDF0E5EC
:104210006F156F7002156E80CEE490067AF0A304DD
:10422000F0900989E090067CF0900989601F900465
:104230008974FFF0A37464F0A3747BF07B017A00AF
:1042400079EB129FB8900007741CF0801D900489D0
:1042500074FFF0A37464F0A37481F07B017A007999
:10426000EB129FB8900007741BF0900007E0756E8A
:1042700000F56FE56F456E602E900007E0C3956F07
:10428000FFE4956EFE74EB2FF58274003EF583E03B
:10429000FD747D2FF58274063EF583EDF0E56F1514
:1042A0006F7002156E80CC900007E0247DF582E4EB
:1042B0003406F5837403F09006AC7405F0A314F093
:1042C000E4F56EF56FC3E56F9402E56E940040036C
:1042D000024396E56FAE6E7802C333CE33CED8F983
:1042E000248AF58274093EF583E0FCA3E0FDA3E097
:1042F000FEA3E0FF746E256FF5827409356EF583B9
:10430000E0F9F8126148C004C005C006C007E56FB7
:10431000AE6E7803C333CE33CED8F924AEF58274B3
:10432000063EF583D007D006D005D0041261C1E562
:104330006FAE6E7802C333CE33CED8F92492F582B5
:1043400074093EF583E0FCA3E0FDA3E0FEA3E0FFDB
:10435000746E256FF5827409356EF583E0F9F812F5
:104360006148C004C005C006C007E56FAE6E7803A3
:10437000C333CE33CED8F924B2F58274063EF5832A
:10438000D007D006D005D0041261C1056FE56F706B
:1043900002056E0242C5756E0085766FE56F456E4B
:1043A000602CC3E576956FFFE4956EFE74072FF5DC
:1043B0008274013EF583E0FD74BE2FF58274063EE3
:1043C000F583EDF0E56F156F7002156E80CE9006E7
:1043D000DE7405F0A37402F090099EE0FCA3E0FDFA
:1043E000A3E0FEA3E0FF9006E01261C19009A2E005
:1043F000FCA3E0FDA3E0FEA3E0FF9006E41261C190
:10440000E4F56EF56F7B017A01792412AC50C3E5B7
:104410006F9FE56E9E50267424256FF582740135DA
:104420006EF583E0FF74E8256FF5827406356EF54E
:1044300083EFF0056FE56F7002056E80C89007107E
:104440007403F0A37401F0900969E0FFA3E0900702
:1044500012CFF0A3EFF0756E0085776FE56F456EB4
:10446000602CC3E577956FFFE4956EFE743F2FF5E2
:104470008274013EF583E0FD74142FF58274073ECB
:10448000F583EDF0E56F156F7002156E80CE756ED9
:104490000085786FE56F456E602CC3E578956FFFFA
:1044A000E4956EFE74532FF58274013EF583E0FDB2
:1044B00074422FF58274073EF583EDF0E56F156FBA
:1044C0007002156E80CE756E0085796FE56F456E52
:1044D000602CC3E579956FFFE4956EFE74872FF528
:1044E0008274013EF583E0FD74D82FF58274073E97
:1044F000F583EDF0E56F156F7002156E80CE756E69
:1045000000857A6FE56F456E602CC3E57A956FFF85
:10451000E4956EFE74EA2FF58274013EF583E0FDAA
:10452000746E2FF58274083EF583EDF0E56F156F1C
:104530007002156E80CE7B017A0479B6900005E09A
:10454000A3E014FD12A80B900005E0FCA3E0FD24FD
:10455000B5F58274043CF583EFF07B017A0479B6FB
:1045600012997512AD3722900A7CE09009C0F022B2
:1045700090096DE064036069E064056064E4FFFE37
:104580007D807C47900A7CE0F8A3E0F9A3E0FAA3E1
:10459000E0FB1259D7125C349009C11261C1E4FFEB
:1045A000FE7D807C47900A80E0F8A3E0F9A3E0FA62
:1045B000A3E0FB1259D7125C349009C51261C1E423
:1045C000FFFE7D807C47900A84E0F8A3E0F9A3E039
:1045D000FAA3E0FB1259D7125C349009C91261C1E9
:1045E00022E4FFFE7D807C47900A7CE0F8A3E0F99E
:1045F000A3E0FAA3E0FB1259D7125C349009D91258
:1046000061C1E4FFFE7D807C47900A80E0F8A3E072
:10461000F9A3E0FAA3E0FB1259D7125C349009DD4C
:104620001261C1E4FFFE7D807C47900A84E0F8A31C
:10463000E0F9A3E0FAA3E0FB1259D7125C34900929
:10464000E11261C12290096DE064036069E06405D4
:104650006064E4FFFE7D807C47900A7CE0F8A3E084
:10466000F9A3E0FAA3E0FB1259D7125C349009CD0C
:104670001261C1E4FFFE7D807C47900A80E0F8A3D0
:10468000E0F9A3E0FAA3E0FB1259D7125C349009D9
:10469000D11261C1E4FFFE7D807C47900A84E0F87E
:1046A000A3E0F9A3E0FAA3E0FB1259D7125C34901F
:1046B00009D51261C122E4FFFE7D807C47900A7C0F
:1046C000E0F8A3E0F9A3E0FAA3E0FB1259D7125CEB
:1046D000349009E51261C1E4FFFE7D807C47900AB9
:1046E00080E0F8A3E0F9A3E0FAA3E0FB1259D712A7
:1046F0005C349009E91261C1E4FFFE7D807C479043
:104700000A84E0F8A3E0F9A3E0FAA3E0FB1259D78A
:10471000125C349009ED1261C122900A7CE090098C
:10472000F3F022900A7CE09009F4F022900A7CE0F9
:104730009009F5F022E4F56EF56FC3E56F9403E59B
:104740006E94004003024A40747C256FF582740A1F
:10475000356EF583E0FF74F6256FF5827409356ECA
:10476000F583EFF0056FE56F7002056E80CCE4F520
:104770006EF56FC3E56F9403E56E94004003024845
:1047800016E56F25E0FFE56E33FE747C2FF582742D
:104790000A3EF583E0FEA3E0FFEE3395E0FDFCC0AA
:1047A00004C005C006C007E56FAE6E7802C333CE05
:1047B00033CED8F9FBAA0624F9F58274093AF583B9
:1047C000D007D006D005D0041261C174F92BF58250
:1047D00074093AF583C083C082E0FCA3E0FDA3E046
:1047E000FEA3E0FF74F6256FF5827409356EF5833C
:1047F000E0F9F812615CD082D0831261C174372570
:104800006FF582740B356EF583E4F0056FE56F701C
:1048100002056E024773D20A22E4F56EF56FC3E516
:104820006F9403E56E94004003024A40E56FAE6E5C
:104830007802C333CE33CED8F9247CF582740A3E95
:10484000F583E0FCA3E0FDA3E0FEA3E0FFC004C00D
:1048500005C006C007E56FAE6E7802C333CE33CE17
:10486000D8F92405F582740A3EF583D007D006D026
:1048700005D0041261C1056FE56F7002056E809E60
:10488000900A7CE0900A11F022E4F56EF56FC3E522
:104890006F9402E56E94004003024A40E56FAE6EED
:1048A0007803C333CE33CED8F9247CF582740A3E24
:1048B000F583E0FCA3E0FDA3E0FEA3E0FFC004C09D
:1048C00005C006C007E56FAE6E7802C333CE33CEA7
:1048D000D8F92412F582740A3EF583D007D006D0A9
:1048E00005D0041261C1E56FAE6E7803C333CE33D9
:1048F000CED8F92480F582740A3EF583E0FCA3E06B
:10490000FDA3E0FEA3E0FFC004C005C006C007E5AC
:104910006FAE6E7802C333CE33CED8F9FBAA06242D
:104920001AF582740A3AF583D007D006D005D00470
:104930001261C174122BF582740A3AF583C083C0E8
:1049400082E0FCA3E0FDA3E0FEA3E0FF74F6256F88
:10495000F5827409356EF583E0F9F812615CD08256
:10496000D0831261C1E56FAE6E7802C333CE33CE11
:10497000D8F9241AF582740A3EF583C083C082E018
:10498000FCA3E0FDA3E0FEA3E0FF74F6256FF58233
:104990007409356EF583E0F9F812615CD082D0833A
:1049A0001261C1056FE56F7002056E02488E900AB4
:1049B0007CE0FCA3E0FDA3E0FEA3E0FF9000081272
:1049C00061C1E4FFFEFDFC900008E0F8A3E0F9A35C
:1049D000E0FAA3E0FBD312610E5014900008E0FC53
:1049E000A3E0FDA3E0FEA3E0FF900A261261C190C0
:1049F0000A80E0FCA3E0FDA3E0FEA3E0FF90000836
:104A00001261C1E4FFFEFDFC900008E0F8A3E0F9AC
:104A1000A3E0FAA3E0FBC312610E4024900008E07B
:104A2000FCA3E0FDA3E0FEA3E0FF900A2A1261C10F
:104A300022900A7CE0FFA3E09009F1CFF0A3EFF011
:104A4000228F23E4F52BF52AF529F528900939E082
:104A5000FCA3E0FDA3E0FEA3E0F53F8E3E8D3D8C80
:104A60003CA3E0FCA3E0FDA3E0FEA3E0F5438E42FF
:104A70008D418C40A3E0FCA3E0FDA3E0FEA3E0F5A4
:104A8000478E468D458C44A3E0FCA3E0FDA3E0FEE9
:104A9000A3E0F54B8E4A8D498C48A3E0FCA3E0FDD2
:104AA000A3E0FEA3E0F54F8E4E8D4D8C4CA3E0FCB1
:104AB000A3E0FDA3E0FEA3E0F5538E528D518C5090
:104AC000A3E0FCA3E0FDA3E0FEA3E0F5578E568D26
:104AD000558C54A3E0FCA3E0FDA3E0FEA3E0F55B4E
:104AE0008E5A8D598C58A3E0FCA3E0FDA3E0FEA3F1
:104AF000E0F55F8E5E8D5D8C5CA3E0FCA3E0FDA322
:104B0000E0FEA3E0F5638E628D618C60A3E0FCA300
:104B1000E0FDA3E0FEA3E0F5678E668D658C64A3DF
:104B2000E0FCA3E0FDA3E0FEA3E0F56B8E6A8D69D7
:104B30008C68E523C3940240030259D690096CE0C7
:104B400064016003024C3C900A37E0FCA3E0FDA343
:104B5000E0FEA3E0FFE52325E025E024A6F582E4BE
:104B60003409F5831261C1900989E07003024C3C5D
:104B7000E52325E025E0248AF582E43409F583E085
:104B8000FCA3E0FDA3E0FEA3E0FFE52325E025E094
:104B900024A6F582E43409F583E0F8A3E0F9A3E064
:104BA000FAA3E0FBC312610E502CE52325E025E0BB
:104BB000248AF582E43409F583E0FCA3E0FDA3E058
:104BC000FEA3E0FFE52325E025E024A6F582E434FA
:104BD00009F5831261C1E52325E025E02492F582E1
:104BE000E43409F583E0FCA3E0FDA3E0FEA3E0FFCD
:104BF000E52325E025E024A6F582E43409F583E0E9
:104C0000F8A3E0F9A3E0FAA3E0FBD312610E402C75
:104C1000E52325E025E02492F582E43409F583E0DC
:104C2000FCA3E0FDA3E0FEA3E0FFE52325E025E0F3
:104C300024A6F582E43409F5831261C190096DE080
:104C4000FF14700302586914700302557D14700339
:104C5000024F9614600D147003024F9624056003F2
:104C60000258C1EF64046003024CECE52325E02503
:104C7000E024A6F582E43409F583E0FCA3E0FDA37B
:104C8000E0FEA3E0FF900B2BE0F8A3E0F9A3E0FA2D
:104C9000A3E0FBC3EF9BFFEE9AFEED99FDEC98FCC1
:104CA000126100E52325E025E02434F81261B5E522
:104CB0002325E025E02423F582E4340BF583E0F896
:104CC000A3E0F9A3E0FAA3E0FBC000E52325E0257B
:104CD000E02434F81261A9D000C3EF9BF52FEE9ABF
:104CE000F52EED99F52DEC98F52C8043E52325E084
:104CF00025E02423F582E4340BF583E0F8A3E0F902
:104D0000A3E0FAA3E0FBE52325E025E024A6F58255
:104D1000E43409F583E0FCA3E0FDA3E0FEA3E0C3D7
:104D20009BF52FEE9AF52EED99F52DEC98F52CE5E7
:104D30002325E025E024F7F582E4340BF583C083D6
:104D4000C082E0FCA3E0FDA3E0FEA3E0252FFFEE80
:104D5000352EFEED352DFDEC352CFCD082D08312A6
:104D600061C1300C05C20C128C4BE52325E025E017
:104D700024F7F582E4340BF583E0FCA3E0FDA3E027
:104D8000FEA3E0FF7BA07A8679017800C312610E52
:104D9000501C7FA07E867D017C00E52325E025E078
:104DA00024F7F582E4340BF5831261C18042E523D8
:104DB00025E025E024F7F582E4340BF583E0FCA33D
:104DC000E0FDA3E0FEA3E0FF7B607A7979FE78FF47
:104DD000D312610E401A7F607E797DFE7CFFE52351
:104DE00025E025E024F7F582E4340BF5831261C158
:104DF000300C05C20C128C4BE4F52BF52AF529F585
:104E000028FFFEFDFCAB3FAA3EA93DA83CC31261B2
:104E10000E606AE4FFFE7D02FCAB2FAA2EA92DA82E
:104E20002CD312610E500FE4FFFE7DFE7CFFA82CF8
:104E3000C312610E5027AF2FAE2EAD2DAC2C7808CB
:104E4000126148AB3FAA3EA93DA83C125FD6780844
:104E50001261488F2B8E2A8D298C288020AF2FAE8F
:104E60002EAD2DAC2CAB3FAA3EA93DA83C125FD67F
:104E700078101261488F2B8E2A8D298C28300C05D2
:104E8000C20C128C4BE4FFFEFDFCAB43AA42A941CD
:104E9000A840C312610E6043AF43AE42AD41AC4087
:104EA0007806126148E52325E025E024F7F582E441
:104EB000340BF583E0F8A3E0F9A3E0FAA3E0FB12DA
:104EC0005FD6780A126148E52B2FF52BE52A3EF5CF
:104ED0002AE5293DF529E5283CF528E4FFFEFDFCFF
:104EE000AB47AA46A945A844C312610E6063E523F7
:104EF00025E025E02423F582E4340BF583E0F8A3D4
:104F0000E0F9A3E0FAA3E0FBE52325E025E0242F68
:104F1000F582E4340AF583E0FCA3E0FDA3E0FEA300
:104F2000E0C39BFFEE9AFEED99FDEC98FCAB47AA1F
:104F300046A945A844125FD67810126148E52B2F88
:104F4000F52BE52A3EF52AE5293DF529E5283CF52E
:104F500028300C05C20C128C4BE523701CFFFEFDA3
:104F6000FCAB2BAA2AA929A828C312610E4005D29E
:104F70000E0258C1C20E0258C1E4FFFEFDFCAB2B6D
:104F8000AA2AA929A828C312610E4005D20F0258E7
:104F9000C1C20F0258C190096DE064056003025060
:104FA00022E52325E025E024A6F582E43409F583F3
:104FB000E0FCA3E0FDA3E0FEA3E0FF900B2BE0F8F4
:104FC000A3E0F9A3E0FAA3E0FBC3EF9BFFEE9AFE98
:104FD000ED99FDEC98FC126100E52325E025E02425
:104FE00034F81261B5E52325E025E02423F582E4B9
:104FF000340BF583E0F8A3E0F9A3E0FAA3E0FBC0EB
:1050000000E52325E025E02434F81261A9D000C38F
:10501000EF9BF52FEE9AF52EED99F52DEC98F52CEA
:105020008043E52325E025E02423F582E4340BF5D5
:1050300083E0F8A3E0F9A3E0FAA3E0FBE52325E091
:1050400025E024A6F582E43409F583E0FCA3E0FD25
:10505000A3E0FEA3E0C39BF52FEE9AF52EED99F5A4
:105060002DEC98F52C300C05C20C128C4BE5232549
:10507000E025E024F7F582E4340BF583C083C08299
:10508000E0FCA3E0FDA3E0FEA3E0252FFFEE352E1C
:10509000FEED352DFDEC352CFCD082D0831261C1A4
:1050A000E52325E025E024F7F582E4340BF583E0E1
:1050B000FCA3E0FDA3E0FEA3E0FF7BA07A867901DC
:1050C0007800C312610E501C7FA07E867D017C009B
:1050D000E52325E025E024F7F582E4340BF583127F
:1050E00061C18042E52325E025E024F7F582E43420
:1050F0000BF583E0FCA3E0FDA3E0FEA3E0FF7B60F3
:105100007A7979FE78FFD312610E401A7F607E793A
:105110007DFE7CFFE52325E025E024F7F582E434DD
:105120000BF5831261C1E4F527F526F525F524FF7B
:10513000FEFDFCAB57AA56A955A854C312610E70C8
:10514000030251C6E4FFFE7D02FCAB2FAA2EA92D5F
:10515000A82CD312610E500FE4FFFE7DFE7CFFA849
:105160002CC312610E5033AF2FAE2EAD2DAC2C7868
:1051700008126148AB57AA56A955A854125FD678B1
:1051800008126148E5272FF527E5263EF526E52597
:105190003DF525E5243CF524802CAF2FAE2EAD2D1A
:1051A000AC2CAB57AA56A955A854125FD67810124A
:1051B0006148E5272FF527E5263EF526E5253DF54F
:1051C00025E5243CF524E4FFFEFDFCAB5BAA5AA9CF
:1051D00059A858C312610E6038E52325E025E02464
:1051E000F7F582E4340BF583E0FCA3E0FDA3E0FED9
:1051F000A3E0FFA858125FD67810126148E5272F68
:10520000F527E5263EF526E5253DF525E5243CF583
:1052100024E4FFFEFDFCAB5FAA5EA95DA85CC3129F
:10522000610E6063E52325E025E02423F582E43464
:105230000BF583E0F8A3E0F9A3E0FAA3E0FBE52394
:1052400025E025E0242FF582E4340AF583E0FCA371
:10525000E0FDA3E0FEA3E0C39BFFEE9AFEED99FD07
:10526000EC98FCAB5FAA5EA95DA85C125FD67810D3
:10527000126148E5272FF527E5263EF526E5253D71
:10528000F525E5243CF524300C05C20C128C4B901E
:105290000969E0FEA3E0FFEE3395E0FDFCAB27AA31
:1052A00026A925A824D312610E4016900969E0FEB4
:1052B000A3E0FFEE3395E08F278E26F525F52480B9
:1052C0003C900969E0FEA3E0FFC3E49FFFE49EFE7B
:1052D0003395E0FDFCAB27AA26A925A824C31261BB
:1052E0000E501A900969E0FEA3E0FFC3E49FFFE4BB
:1052F0009EFE3395E08F278E26F525F524E52325A0
:10530000E025E0242FF582E4340BF583E0F8A3E0F8
:10531000F9A3E0FAA3E0FBC3E5279BF533E5269A62
:10532000F532E52599F531E52498F530E52325E0BA
:1053300025E024FFF582E4340BF583C083C082E0CE
:10534000FCA3E0FDA3E0FEA3E02533FFEE3532FE33
:10535000ED3531FDEC3530FCD082D0831261C1E5F2
:105360002325E025E024FFF582E4340BF583E0FCFF
:10537000A3E0FDA3E0FEA3E0FF7BA07A867901789D
:1053800000C312610E501C7FA07E867D017C00E56B
:105390002325E025E024FFF582E4340BF583126138
:1053A000C18042E52325E025E024FFF582E4340BAB
:1053B000F583E0FCA3E0FDA3E0FEA3E0FF7B607AC1
:1053C0007979FE78FFD312610E401A7F607E797D75
:1053D000FE7CFFE52325E025E024FFF582E4340B85
:1053E000F5831261C1300C05C20C128C4BE4F52B15
:1053F000F52AF529F528FFFEFDFCAB63AA62A96139
:10540000A860C312610E6026AF33AE32AD31AC304E
:10541000A860125FD67810126148E52B2FF52BE5B6
:105420002A3EF52AE5293DF529E5283CF528E4FF43
:10543000FEFDFCAB67AA66A965A864C312610E6095
:1054400038E52325E025E024FFF582E4340BF583DD
:10545000E0FCA3E0FDA3E0FEA3E0FFA864125FD69A
:105460007810126148E52B2FF52BE52A3EF52AE549
:10547000293DF529E5283CF528E4FFFEFDFCAB6B52
:10548000AA6AA969A868C312610E6063E52325E0D2
:1054900025E0242FF582E4340BF583E0F8A3E0F94E
:1054A000A3E0FAA3E0FBE52325E025E0243BF58219
:1054B000E4340AF583E0FCA3E0FDA3E0FEA3E0C32F
:1054C0009BFFEE9AFEED99FDEC98FCAB6BAA6AA9E6
:1054D00069A868125FD67810126148E52B2FF52B6A
:1054E000E52A3EF52AE5293DF529E5283CF5283051
:1054F0000C05C20C128C4BE523701AFFFEFDFCABB1
:105500002BAA2AA929A828C312610E4004D20E8012
:105510001DC20E8019E4FFFEFDFCAB2BAA2AA929AF
:10552000A828C312610E4004D20F8002C20F300CB3
:1055300005C20C128C4B74FF7F9CFEFDFCAB2BAAAA
:105540002AA929A828C312610E500E74FF752B9C3E
:10555000F52AF529F5280258C1E47F64FEFDFCAB6D
:105560002BAA2AA929A828D312610E50030258C1D8
:10557000E4752B64F52AF529F5280258C19009BE77
:10558000E070030258C1200D030258C1E52325E055
:1055900025E024AEF582E43409F583E0FCA3E0FDC8
:1055A000A3E0FEA3E0F5278E268D258C24900969C3
:1055B000E0FEA3E0FFEE3395E0FDFCAB27AA26A9B1
:1055C00025A824D312610E4016900969E0FEA3E0DD
:1055D000FFEE3395E08F278E26F525F524803C904D
:1055E0000969E0FEA3E0FFC3E49FFFE49EFE33955C
:1055F000E0FDFCAB27AA26A925A824C312610E5002
:105600001A900969E0FEA3E0FFC3E49FFFE49EFE59
:105610003395E08F278E26F525F524300C05C20C36
:10562000128C4BE52325E025E0242FF582E4340B92
:10563000F583E0F8A3E0F9A3E0FAA3E0FBC3E527D4
:105640009BF533E5269AF532E52599F531E5249861
:10565000F530E52325E025E024FFF582E4340BF561
:1056600083C083C082E0FCA3E0FDA3E0FEA3E025AD
:1056700033FFEE3532FEED3531FDEC3530FCD082B6
:10568000D0831261C1E52325E025E024FFF582E403
:10569000340BF583E0FCA3E0FDA3E0FEA3E0FF7B79
:1056A000A07A8679017800C312610E501C7FA07E1B
:1056B000867D017C00E52325E025E024FFF582E4DA
:1056C000340BF5831261C18042E52325E025E024F7
:1056D000FFF582E4340BF583E0FCA3E0FDA3E0FEDC
:1056E000A3E0FF7B607A7979FE78FFD312610E40E8
:1056F0001A7F607E797DFE7CFFE52325E025E0248E
:10570000FFF582E4340BF5831261C1300C05C20C45
:10571000128C4BE4F52BF52AF529F528FFFEFDFC4C
:10572000AB4BAA4AA949A848C312610E6026AF3301
:10573000AE32AD31AC30A848125FD6781012614855
:10574000E52B2FF52BE52A3EF52AE5293DF529E540
:10575000283CF528E4FFFEFDFCAB4FAA4EA94DA85E
:105760004CC312610E603DE52325E025E024FFF5E2
:1057700082E4340BF583E0FCA3E0FDA3E0FEA3E0AC
:10578000FF7806126148A84C125FD6780A12614869
:10579000E52B2FF52BE52A3EF52AE5293DF529E5F0
:1057A000283CF528E4FFFEFDFCAB53AA52A951A802
:1057B00050C312610E604FE52325E025E02407F574
:1057C00082E4340CF583E0F8A3E0F9A3E0FAA3E067
:1057D000FBC3E5339BFFE5329AFEE53199FDE530E9
:1057E00098FCAB53AA52A951A850125FD678101258
:1057F0006148E52B2FF52BE52A3EF52AE5293DF5F5
:1058000029E5283CF528300C05C20C128C4BAF332F
:10581000AE32AD31AC30E52325E025E02407F5823A
:10582000E4340CF5831261C1E523701AFFFEFDFC20
:10583000AB2BAA2AA929A828C312610E4004D20EB4
:10584000801DC20E8019E4FFFEFDFCAB2BAA2AA925
:1058500029A828C312610E4004D20F8002C20F3063
:105860000C5FC20C128C4B8058E52325E025E02408
:10587000B6F582E43409F583E0FCA3E0FDA3E0FE85
:10588000A3E0F52B8E2A8D298C28E523701AFFFEC4
:10589000FDFCAB2BAA2AA929A828C312610E40043B
:1058A000D20E801DC20E8019E4FFFEFDFCAB2BAAB8
:1058B0002AA929A828C312610E4004D20F8002C26F
:1058C0000F300C05C20C128C4BE47F64FEFDFCAB68
:1058D0002BAA2AA929A828D312610E400AE4752B05
:1058E00064F52AF529F52874FF7F9CFEFDFCAB2B9F
:1058F000AA2AA929A828C312610E500B74FF752B80
:105900009CF52AF529F528300C05C20C128C4B9019
:10591000096DE064016037AF2BAE2AAD29AC287861
:105920000A12615CE47B64FAF9F812A4B4A804A931
:1059300005AA06AB07900B74E0FFE4FCFDFE125FC6
:10594000D6780A1261488F2B8E2A8D298C28300E2A
:1059500011300F077F0312AFC780167F0112AFC748
:10596000800F300F077F0212AFC78005E4FF12AF30
:10597000C7300C05C20C128C4BE5237029FFFEFDCD
:10598000FCAB2BAA2AA929A828C312610E40047FC8
:105990000180027FFF900B21EFF0AE2AAF2B12AEF9
:1059A0009012AFA38028E4FFFEFDFCAB2BAA2AA92E
:1059B00029A828C312610E40047F0180027FFF9056
:1059C0000B22EFF0AE2AAF2B12AE9012AFA9300C23
:1059D00005C20C128C4B22EC4D6011E8497017ED9A
:1059E00033EC3304600DE4FCFFFEFD22E933E833C1
:1059F0000470F8025CA0125C6B58046009E4CC24CB
:105A0000815006285009025CAA284003025CA7C006
:105A1000E0EB4A7044B98006D0E0FB025C96EF4EA2
:105A2000701CBD8008EBFFEAFEE9FD80EBE98DF01C
:105A3000A4FEE5F0025AC0E9CDF9EAFEEBFFEF89DA
:105A4000F0A4FCE5F0CE89F0A42EFFE435F0CD897A
:105A5000F0A42DFEE435F08067EF4E7005BD80D7D1
:105A600080C3EF8BF0A4ACF0EE8BF0A42CFCE435FB
:105A7000F0F8EF8AF0A42CE5F038FCE433CB8DF09D
:105A8000A42CFCE5F03BF8EE8AF0A42CFCE5F03801
:105A9000F8E433CF89F0A42CFCE5F038CF3400CE05
:105AA00089F0A42FFFE5F03EFEE433C98DF0A42E6B
:105AB000FEE5F039CD8AF0A42FFFE5F03EFEE43D8F
:105AC000FD33D0E0FB50070BBB000F025CAAEC2CAF
:105AD000FCEF33FFEE33FEED33FD025C82025CAA85
:105AE000EC5D046005E859047003025CA0125C6B75
:105AF000580460F6EC4860F2EC7004FDFEFF22C82A
:105B000060DB2481C85009C39860025006025CA77C
:105B10009850CAF582E9294B4A7005AB82025C961F
:105B200075F0007C1A7880C3EF9BEE9AED99400DDA
:105B3000C3EF9BFFEE9AFEED99FDE842F0DC23AC4B
:105B4000F0D0E0FFD0E0FED0E0FDAB8220E7101BFC
:105B5000EB60BAEC2CFCEF33FFEE33FEED33FD02CD
:105B60005C82E803F830E705C0F075F000EF2FFF26
:105B7000EE33FEED33FD40B830E7C280AA74F8CCB6
:105B80006480CCC86480C8F58204604FC3EB9FF585
:105B9000F0EA9E42F0E99D42F0E89C45F0603C50FE
:105BA0001DE5825FFFE582D313CB5BCBF42B5582DF
:105BB000FB50280ABA002409B9002008801DE5829C
:105BC0005BFBE582D313CF5FCFF4C3132F5582FF66
:105BD00050090EBE00050DBD00010CC3EB9FF5F092
:105BE000EA9E42F0E99D42F0E89C45F06007CC480F
:105BF00020E701B3EC2275F020800E75F0108005CF
:105C000075F0087D007E007F003392D530D50312F9
:105C10006100EC334010EF33FFEE33FEED33FDEC6B
:105C200033FCD5F0ED22E5F0247EA2D513CC92E72B
:105C3000CDCEFF22EDD2E7CD33EC3392D524814097
:105C400006E4FFFEFDFC22FCE4CFCECDCC24E050E8
:105C50001174FF80EDC3CC13CCCD13CDCE13CECFBA
:105C600013CF0470F030D5DE026100E9D2E7C9330A
:105C7000E833F892D5EDD2E7CD33EC33FC5002B2E5
:105C8000D522EC30E7100FBF000C0EBE00080DBD92
:105C900000040BEB6014A2D5EB13FCED92E7FD22A0
:105CA00074FFFCFDFEFF22E480F8A2D574FF13FC14
:105CB0007D80E480EFF920E73624F950037907E48A
:105CC000F42402FBE582158270021583DBF6E024E2
:105CD000FB501BE96014E4F0E58215827002158325
:105CE000E004F0B40A08E4F0D9EE7401F00A22C22C
:105CF000D522ED33EC3392D5FA602AB4FF33EDC2EE
:105D0000E77BFF60067A5D7917E4227A5D792020CF
:105D1000D5047A5D791B224E614E002B494E460018
:105D20002D494E4600E47A08F0A3DAFC7B007407A4
:105D300022C083C082ECC0E0EDC0E0EEC0E0EFC066
:105D4000E0EA75F010A4CAABF075F04DA42BFBE4AB
:105D500035F0FCEA2410FAEB34C5FBEC34D9FCED49
:105D6000C2E7FF75F056A4F42411C5F0F434C58FD2
:105D7000F0A42AE5F03BE43CF020E714125F1FD0CA
:105D8000E0FFD0E0FED0E0FDD0E0FC125AE080144D
:105D9000F404125F1FD0E0FFD0E0FED0E0FDD0E0C1
:105DA000FC1259D7D082D083E0FAEDD2E7CD33ECA4
:105DB000332482FBE4C3CF33CFCE33CECD33CD33C8
:105DC000DBF37B0775F00A846004F0A31B0AE5F09F
:105DD000F0A38FF0740AA4FFACF08EF0740AA42C28
:105DE000FEACF050010C8DF0740AA42CFDE435F0EB
:105DF000F0A3DBDE740722025CA0E86480F8E933DC
:105E0000E83360110460F0ED33EC337009E8FCE92D
:105E1000FDEAFEEBFF220460DED3EB9FEA9EE99DE4
:105E2000E8C2E78CF0C2F795F0400CE8CCF8E9CD79
:105E3000F9EACEFAEBCFFB125C6B85D0F058047018
:105E40000320D5B3E80470075002B2D5025CAA92D1
:105E5000D5EC0460F7E4CCC0E0C398F8603B94183C
:105E60006008400DD0E0FB025C82E4FBFAC9FC80D4
:105E700028E830E406E4C9FBE4CAFCE830E305E4C2
:105E8000C9CACBFCE854076010F8C3E913F9EA1358
:105E9000FAEB13FBEC13FCD8F130F52FC3E49CFCB8
:105EA000EF9BFFEE9AFEED99FDD0E0FBEF4E4D4CDF
:105EB000701222DB03025CA7EC2CFCEF33FFEE3305
:105EC000FEED33FDED30E7EB025C82EF2BFFEE3AA7
:105ED000FEED39FDD0E0FB50130BBB0003025CAAC2
:105EE000ED13FDEE13FEEF13FFEC13FC025C823F9B
:105EF0008000004120000042C80000447A000046B3
:105F00001C400047C35000497424004B1896804C35
:105F1000BEBC205A0E1BCA6753C21C749DC5AEFB83
:105F200060065407601C2323125F4DEB5438600950
:105F3000125F39125F481259D7ECF8EDF9EEFAEF1B
:105F4000CB22EB125F4880F1543803241C905EEFA3
:105F5000FE93FC0EEE93FD0EEE930ECE93FF22BB4E
:105F6000010689828A83E0225002E722BBFE02E317
:105F70002289828A83E49322BB010CE58229F5827F
:105F8000E5833AF583E0225006E92582F8E622BB54
:105F9000FE06E92582F8E222E58229F582E5833AC8
:105FA000F583E49322BB010689828A83F0225002A2
:105FB000F722BBFE01F322BB010A89828A83F0E546
:105FC000F0A3F0225006F709A7F01922BBFE06F352
:105FD000E5F009F31922E88FF0A4CC8BF0A42CFC97
:105FE000E98EF0A42CFC8AF0EDA42CFCEA8EF0A43F
:105FF000CDA8F08BF0A42DCC3825F0FDE98FF0A4CE
:106000002CCD35F0FCEB8EF0A4FEA9F0EB8FF0A4C4
:10601000CFC5F02ECD39FEE43CFCEAA42DCE35F000
:10602000FDE43CFC2275F008758200EF2FFFEE3393
:10603000FECD33CDCC33CCC58233C5829BED9AECFB
:1060400099E58298400CF582EE9BFEED9AFDEC9965
:10605000FC0FD5F0D6E4CEFBE4CDFAE4CCF9A8826F
:1060600022B800C1B90059BA002DEC8BF084CFCE14
:10607000CDFCE5F0CBF97818EF2FFFEE33FEED33D2
:10608000FDEC33FCEB33FB10D703994004EB99FB99
:106090000FD8E5E4F9FA227818EF2FFFEE33FEED82
:1060A00033FDEC33FCC933C910D7059BE99A40078F
:1060B000EC9BFCE99AF90FD8E0E4C9FAE4CCFB22A6
:1060C00075F010EF2FFFEE33FEED33FDCC33CCC86F
:1060D00033C810D7079BEC9AE899400AED9BFDEC7A
:1060E0009AFCE899F80FD5F0DAE4CDFBE4CCFAE4B9
:1060F000C8F922CFF4CFCEF4CECDF4CDCCF4CC225F
:10610000C3E49FFFE49EFEE49DFDE49CFC22EB9F24
:10611000F5F0EA9E42F0E99D42F0EC6480C86480AC
:106120009845F022EB9FF5F0EA9E42F0E99D42F09F
:10613000E89C45F022E8600FECC313FCED13FDEE84
:1061400013FEEF13FFD8F122E86010ECA2E713FC76
:10615000ED13FDEE13FEEF13FFD8F022E8600FEF12
:10616000C333FFEE33FEED33FDEC33FCD8F122BB3D
:10617000010789828A830264475005E9F80261A910
:10618000BBFE05E9F802645389828A8302645FBB1F
:10619000010789828A830261C15005E9F80261B56D
:1061A000BBFE05E9F802646F22E6FC08E6FD08E69E
:1061B000FE08E6FF22ECF608EDF608EEF608EFF62C
:1061C00022ECF0A3EDF0A3EEF0A3EFF022F8E0FB59
:1061D000A3A3E0F925F0F0E582158270021583E0B3
:1061E000FA38F022EBF0A3EAF0A3E9F022D083D052
:1061F00082F8E4937012740193700DA3A393F87462
:106200000193F5828883E4737402936860EFA3A31B
:10621000A380DFE50F2582F582E50E3583F583B592
:106220000E0485820F2210AF0685820FF50E22859F
:10623000820FF50ED2AF22EC8EF0A4CCC5F0CCCDFF
:10624000F8EFA4CEC5F02DFDE43CFCE8A42EC8C5B3
:10625000F03DFDE43CFCEFA4FFE5F028FEE43DFD4D
:10626000E43CFC22E709F608DFFA8046E709F20879
:10627000DFFA803E88828C83E709F0A3DFFA803260
:10628000E309F608DFFA806EE309F208DFFA8066B8
:1062900088828C83E309F0A3DFFA805A89828A839B
:1062A000E0A3F608DFFA804E89828A83E0A3F20831
:1062B000DFFA804280D280FA80C680D4805580F296
:1062C0008029801080A680EA809A80A880DA80E207
:1062D00080CA802988848C8589828A83E493A30577
:1062E00086F0A30586DFF5DEF3800B89828A83E4DE
:1062F00093A3F608DFF9ECFAA9F0EDFB2288848C71
:106300008589828A83E0A30586F0A30586DFF6DE11
:10631000F480E389828A83E493A3F208DFF980D6CC
:1063200088F0EF60010E4E60CD88F0ED2402B404D9
:106330000050C3F582EB2402B4040050B923234576
:1063400082239062B473E709F60870FA8046E70981
:10635000F20870FA803E88828C83E709F0A370FA15
:106360008074E309F60870FA806CE309F20870FAA9
:10637000806488828C83E309F0A370FA8058898254
:106380008A83E0A3F60870FA804C89828A83E0A3AE
:10639000F20870FA804080D280FA80C680D48051A2
:1063A00080F28027801080A680EA809A80A880DA18
:1063B00080E280CA802788848C8589828A83E493DE
:1063C000A30586F0A3058670F5800B89828A83E495
:1063D00093A3F60870F9ECFAA9F0EDFB2288848CFF
:1063E0008589828A83E0A30586F0A3058670F680FE
:1063F000E589828A83E493A3F20870F980D888F053
:10640000ED2402B4040050CEF582EB2402B4040063
:1064100050C4232345822390639673C5F0F8A3E00C
:1064200028F0C5F0F8E582158270021583E038F097
:1064300022A3F8E0C5F025F0F0E582158270021580
:1064400083E0C838F0E822E0FCA3E0FDA3E0FEA36F
:10645000E0FF22E2FC08E2FD08E2FE08E2FF22E49F
:1064600093FC740193FD740293FE740393FF22EC7A
:10647000F208EDF208EEF208EFF22220594553003F
:1064800000204E4F000020557362000020456E63CF
:106490006F6465722033000020506F736974696FF8
:1064A0006E00002050574D00002043757272656EDB
:1064B00074000020506F736974696F6E20616E64A0
:1064C0002063757272656E740000204465666C65A9
:1064D0006374696F6E0000204465666C656374695F
:1064E0006F6E20616E642063757272656E74000059
:1064F000000D0A004669726D7761726520766572DB
:1065000073696F6E3A200051424144562076362E10
:10651000312E32002E0D0A0D0A00444556494345DE
:1065200020494E464F0D0A0049443A2025640D0A81
:10653000004E756D626572206F662073656E736FB5
:1065400072733A2025640D0A0050574D204C696D36
:1065500069743A2025640D0A004D4F544F5220496A
:106560004E464F0D0A004D6F746F7220726566655E
:1065700072656E63657300202D20506F73697469B6
:106580006F6E3A2000202D2043757272656E747311
:106590003A2000202D2050776D3A2000202D2044F5
:1065A00065666C656374696F6E2000256420004D1C
:1065B0006F746F7220656E61626C65643A20005979
:1065C00045530D0A004E4F0D0A000D0A4D4541532B
:1065D0005552454D454E545320494E464F0D0A00E5
:1065E00053656E736F722076616C75653A0D0A00A3
:1065F0002564202D3E20256400566F6C746167650C
:1066000020286D56293A20256C6400437572726506
:106610006E74203120286D41293A20256C64004396
:10662000757272656E74203220286D41293A2025DA
:106630006C64000D0A44455649434520504152417F
:106640004D45544552530D0A0050494420436F6E46
:1066500074726F6C6C65723A0D0A0050202D3E20EA
:1066600025660D0A0049202D3E2025660D0A0044AE
:10667000202D3E2025660D0A0043757272656E74EA
:106680002050494420436F6E74726F6C6C65723A8F
:106690000D0A0053746172747570206163746976B9
:1066A0006174696F6E3A205945530D0A0053746145
:1066B000727475702061637469766174696F6E3A83
:1066C000204E4F0D0A00496E707574206D6F646521
:1066D0003A205553420D0A00496E707574206D6F53
:1066E00064653A2053656E736F7220330D0A004360
:1066F0006F6E74726F6C204D6F64653A2000506F3E
:10670000736974696F6E0D0A0050574D0D0A00438E
:10671000757272656E740D0A00506F736974696FDB
:106720006E20616E642063757272656E740D0A006E
:106730004465666C656374696F6E0D0A0044656636
:106740006C656374696F6E20616E6420637572722C
:10675000656E740D0A0053656E736F7220726573F7
:106760006F6C7574696F6E3A0D0A004D65617375D3
:1067700072656D656E74204F66667365743A0D0AB6
:10678000002564202D3E20256C64004D65617375E5
:1067900072656D656E74204D756C7469706C696599
:1067A000723A0D0A002564202D3E20256600506FA8
:1067B000736974696F6E206C696D697420616374AC
:1067C0006976653A20256400506F736974696F6E4D
:1067D000206C696D6974206D6F746F722025643A46
:1067E00020696E66202D3E20256C64202000737584
:1067F00070202D3E20256C640D0A004D61782073B9
:10680000746966666E6573733A2025640043757219
:1068100072656E74206C696D69743A202564006439
:10682000656275673A20256C640031202D2044652F
:10683000766963652049443A0032202D20506F73F9
:106840006974696F6E20504944205B502C20492C9C
:1068500020445D3A0033202D2043757272656E74BA
:1068600020504944205B502C20492C20445D3A00A4
:1068700034202D20537461727475702041637469E3
:10688000766174696F6E3A000000000035202D209B
:10689000496E707574206D6F64653A0000000000E9
:1068A0000000000000000036202D20436F6E74723F
:1068B0006F6C206D6F64653A0000000000000000FE
:1068C0000000000000000000000000000000372071
:1068D0002D205265736F6C7574696F6E733A003852
:1068E000202D204D6561737572656D656E74204F46
:1068F0006666736574733A0039202D204D756C748B
:1069000069706C696572733A003130202D20506FC8
:10691000732E206C696D6974206163746976653AC1
:1069200000000000003131202D20506F732E206CAC
:10693000696D697473205B696E662C207375705D78
:106940003A003132202D204D6178207374657073C8
:10695000205B6E65672C20706F735D3A00313320C9
:106960002D2043757272656E74206C696D69743A7E
:106970000030202D3E205573620A31202D3E2053D9
:1069800068616674277320706F736974696F6E2015
:10699000636F6E74726F6C7320746865206D6F74B2
:1069A0006F72730A0030202D3E20506F7369746936
:1069B0006F6E0A31202D3E2050574D0A32202D3E59
:1069C0002043757272656E740A33202D3E20506F1D
:1069D000736974696F6E2D43757272656E740A34D3
:1069E000202D3E204465666C656374696F6E0A35C0
:1069F000202D3E204465666C656374696F6E2D437F
:106A0000757272656E740A0030202D3E20446561F7
:106A100063746976617465205B4E4F5D0A31202D89
:106A20003E204163746976617465205B5945535D0E
:106A30000A004209358000647F04B60000000000AF
:106A40000000000000000000000000000000000046
:106A50000000000000000000000000000000000036
:106A60000000000000000000000000000000000026
:106A70000000000000000000000000000000000016
:106EB00000000000000000000000010800420BF587
:106EC0000001C190410C2A00410CED00410CEE0084
:106ED000410CEF00410CF000410CF100410CF200BC
:106EE000410CF300410CF400410CBC00410CBE000D
:106EF000410C9A00410CBB00410C9900410CBD00B3
:106F0000410CCA00410CC500410CC000410CC60038
:106F1000410CBF01410CF5FF410CE380410CE27FC5
:106F2000440CDE00000400440CD502DC6C00440C70
:106F3000D00000BB80410CD430440CDA5DC00000AE
:106F4000410CF6FF430CE4000000410CF70000E5A3
:106F50006E2489F582E43404F583E0056E22900402
:106F600086300803900489E475F0011261CD025F58
:106F70005F2001E97F2ED2018018EF540F2490D4B6
:106F80003440D4FF30050BEF24BFB41A0050032463
:106F900061FFE56F6002156F0572E57270020571A1
:106FA00030080E900486E475F0011261CDEF025FA7
:106FB000A502A9857403D2088003E4C208F56E9087
:106FC00004861261E4E4F56FF571F572E56F600710
:106FD0007F20126F9280F57570FFC202C201C2035A
:106FE000C204C206C207C209126F5EFF700D3008EC
:106FF000057F00126FA3AF72AE7122B4255FC2D5B8
:10700000C205126F5EFF24D0B40A00501A75F00A50
:10701000786F30D50508B6FF0106C6A426F620D540
:10702000047002D20480D924CFB41A00EF5004C2F5
:10703000E5D205027295D20280C6D20180C0D20389
:1070400080BCD2D580BAD20680B47F20126F922045
:1070500003077401B56F0040F1126F4FFF126F927A
:10706000026FCCD209D2078095126F4FFB126F4F7F
:10707000FA126F4FF94A4B700679937A737BFF20AF
:10708000032EE56F602A7E008E82758300125F7882
:1070900060060EEE657070F0C2D5EBC0E0EAC0E0AD
:1070A000E9C0E0EE1272F6D0E0F9D0E0FAD0E0FBF1
:1070B000125F5FFF60AAEBC0E0EAC0E0E9C0E01247
:1070C0006F92D0E02401F9D0E03400FAD0E0FBE583
:1070D000700460DCD570D98087D20380A21272D888
:1070E00060F7E570700104125CB5A970600DE57081
:1070F000600914F570127380EF60F3EA30E702F470
:1071000004C3995079EAF425700430E701E404F5EA
:1071100070800D1272D860C1EA05702570125CB5DE
:10712000EA9004B5F030E701E4257004D57004203E
:107130000601141272F6E4C0E01273809004B5E008
:10714000601320E70714F0126F7A802204F0D0E079
:1071500014C0E07F00126F7AE5706007126F71153E
:1071600070800B300603126F71D0E0026FCCD0E05C
:107170000480C41272D8609EE57004125CB590045D
:10718000B5EAF0E57020060260010424041272F6EC
:1071900074FF04C0E0127380126F7AE5702006025B
:1071A0006003126F71D0E0B570E87F45126F849074
:1071B00004B5E07F2B30E7047F2DF404C0E0126FAC
:1071C00092D0E075F00A84C0F0126F7BD0E0126FAD
:1071D0007B026FCC791080027908C207C20980084F
:1071E000D2D5790A8004790AC2D5E570047002F517
:1071F00070E4FAFDFEFF126F4FFC7B0820021312B1
:107200006F4FFD7B1030010A126F4FFE126F4FFF60
:107210007B20EC3382D592D55013C3E43001069F16
:10722000FFE49EFEE42002039DFDE49CFCE4CBF819
:10723000C202EC700CCFCECDCCE824F8F870F3800D
:1072400017C3EF33FFEE33FEED33FDEC33FCEB33CE
:10725000FB994002FB0FD8E9EB300205F8D0E0C4FF
:1072600048B202C0E00AEC4D4E4F78207B0070C25D
:10727000EAB5700040BCC0E01272F8D0F0D0E02057
:107280000204C4C0E0C4B202C0F0126F7BD0F0D5DB
:10729000F0EB026FCC1261ED70695371D458703A03
:1072A0004C70364271D84F71E04471E049704F43E1
:1072B00071E65571134671734570DD4773B35070B5
:1072C0003E2D70422E70652B704623706320739C98
:1072D0002A6FFE480000705DE570B4FF037570060C
:1072E000126F4FFC126F4FFD126F4FFE126F4FFF68
:1072F0009004AE025CF2790AA2D52004143006098B
:10730000B910020404B9080104A2D52007025001F3
:10731000042003689203B56F005034C0E07F203032
:1073200004197F30A20372077206500F12734FC206
:1073300003C207C206C2097F30800F300603E9C0CE
:10734000E0126F92300603D0E0F9D0E0B56FCC3098
:1073500006177F30B9100C126F927F583005077FE7
:10736000788003B90803126F923003057F2D026FF6
:10737000927F202009F87F2B2007F322920380CFF1
:107380007F00B40700500B24AEF582E43404F5838B
:10739000E0FF22286E756C6C2900D202126F4F300C
:1073A00002F8C202786F30D50108F6026FFE2D5048
:1073B000434958126F4F2403B405004001E4907311
:1073C000AE93126F83743A126F83D204756F040206
:1073D00071D4756E0290096CE060030276A1900A88
:1073E00005E0FCA3E0FDA3E0FEA3E0FF90097DE043
:1073F000F8A3E0F9A3E0FAA3E0FB125B7D605890EC
:107400000AFEE0FCA3E0FDA3E0FEA3E0FFEC125BBC
:10741000F690097DE0F8A3E0F9A3E0FAA3E0FB12FF
:107420005AE0125C34900AFE1261C1900AFEE0FC40
:10743000A3E0FDA3E0FEA3E0FFEC125BF6900A05DB
:10744000E0F8A3E0F9A3E0FAA3E0FB1259D7125C3D
:1074500034900AFE1261C1900A09E0FCA3E0FDA38A
:10746000E0FEA3E0FF900981E0F8A3E0F9A3E0FAD1
:10747000A3E0FB125B7D6058900B02E0FCA3E0FDF3
:10748000A3E0FEA3E0FFEC125BF6900981E0F8A315
:10749000E0F9A3E0FAA3E0FB125AE0125C34900B8F
:1074A000021261C1900B02E0FCA3E0FDA3E0FEA389
:1074B000E0FFEC125BF6900A09E0F8A3E0F9A3E024
:1074C000FAA3E0FB1259D7125C34900B021261C18F
:1074D0009009F9E0FCA3E0FDA3E0FEA3E0FF900922
:1074E00071E0F8A3E0F9A3E0FAA3E0FBC312610E98
:1074F0006057900AFEE0F8A3E0F9A3E0FAA3E0FBEE
:10750000C000C001C002C003900971E0F8A3E0F917
:10751000A3E0FAA3E0FB9009F9E0FCA3E0FDA3E0FF
:10752000FEA3E0C39BFFEE9AFEED99FDEC98FCD024
:1075300003D002D001D000EB2FFFEA3EFEE93DFD73
:10754000E83CFC900AFE1261C19009FDE0FCA3E05A
:10755000FDA3E0FEA3E0FF900975E0F8A3E0F9A326
:10756000E0FAA3E0FBC312610E6057900B02E0F853
:10757000A3E0F9A3E0FAA3E0FBC000C001C002C091
:1075800003900975E0F8A3E0F9A3E0FAA3E0FB900B
:1075900009FDE0FCA3E0FDA3E0FEA3E0C39BFFEE3A
:1075A0009AFEED99FDEC98FCD003D002D001D000FA
:1075B000EB2FFFEA3EFEE93DFDE83CFC900B02129A
:1075C00061C1900989E070030276A1A3E0FCA3E009
:1075D000FDA3E0FEA3E0FF900AFEE0F8A3E0F9A31C
:1075E000E0FAA3E0FBC312610E501490098AE0FC9C
:1075F000A3E0FDA3E0FEA3E0FF900AFE1261C190AC
:10760000098EE0FCA3E0FDA3E0FEA3E0FF900B02E7
:10761000E0F8A3E0F9A3E0FAA3E0FBC312610E5087
:107620001490098EE0FCA3E0FDA3E0FEA3E0FF9030
:107630000B021261C1900992E0FCA3E0FDA3E0FE01
:10764000A3E0FF900AFEE0F8A3E0F9A3E0FAA3E0CC
:10765000FBD312610E4014900992E0FCA3E0FDA35D
:10766000E0FEA3E0FF900AFE1261C1900996E0FCE3
:10767000A3E0FDA3E0FEA3E0FF900B02E0F8A3E08F
:10768000F9A3E0FAA3E0FBD312610E40149009962F
:10769000E0FCA3E0FDA3E0FEA3E0FF900B0212617B
:1076A000C19009C0E0FF900938E0FE6F60418E7123
:1076B000E4FFFE129580EF601C756F017570017B11
:1076C000007A00796FE56EFD7C00900008E571F0AE
:1076D0001298E8802FE4F56FF570FB7A00796FE57A
:1076E0006EFD7C00900008E571F01298E88015E4CA
:1076F000FFFE129580EF60077F0112AC118005E458
:10770000FF12AC11900B67E004F07006900B66E07E
:1077100004F0228F23E523C394034003027A25302B
:107720000A227B03AF031BEF6018E4FFFEFDFCEBB6
:1077300025E025E0240FF582E4340CF5831261C1C5
:1077400080E2C20AE523701812AEEF7801126135AB
:10775000EFEEED5403FDE4FC9000021261C18033B2
:10776000E523B4021812AEE57801126135EFEEEDB3
:107770005403FDE4FC9000021261C1801612AEDBDE
:107780007801126135EFEEED5403FDE4FC90000248
:107790001261C17B017A007902129F4D4003027A87
:1077A00025900002E0FCA3E0FDA3E0FEA3E054C0AE
:1077B000FFEEED5403FDE42FFFE43EFEED34FEFD4D
:1077C000E434FFFC7802126135A31261C1E5236441
:1077D000026037E52325E025E024F9F582E4340949
:1077E000F583E0A3E0A3E0FEA3E0FBAA0690000679
:1077F000E0A3E0A3E0FEA3E02BFFEE3AFE3395E02A
:10780000FDFC9000061261C18041E52325E025E0E2
:1078100024F9F582E43409F583E0FCA3E0FDA3E05C
:10782000FEA3E0FF900006E0F8A3E0F9A3E0FAA3CE
:10783000E02FFFEA3EFEE93DFDE83CFC126100EE70
:107840003395E0FDFC9000061261C13010279000D6
:1078500006E0FCA3E0FDA3E0FEA3E0FFE52325E0B6
:1078600025E0240FF582E4340CF5831261C1E52391
:10787000B40202C210E52325E025E0240FF582E4DE
:10788000340CF583E0F8A3E0F9A3E0FAA3E0FB9061
:107890000006E0FCA3E0FDA3E0FEA3E0C39BFFEE37
:1078A0009AFEED99FDEC98FCA31261C1E4FF7EC045
:1078B000FDFC90000AE0F8A3E0F9A3E0FAA3E0FBE6
:1078C000D312610E401074372523F582E4340BF592
:1078D00083E014F080687F007E407DFF7CFF900095
:1078E0000AE0F8A3E0F9A3E0FAA3E0FBC312610EFB
:1078F000501074372523F582E4340BF583E004F04F
:10790000803C90000AE0A3E0A3E0FEA3E0FF12AEFB
:1079100090D3EF9400EE648094C04022741B252322
:10792000F582E4340CF583E004F0741B2523F58222
:10793000E4340CF583E0C3940A5003027A25741BE7
:107940002523F582E4340CF583E4F0900006E0FC96
:10795000A3E0FDA3E0FEA3E0FFE52325E025E0246E
:107960000FF582E4340CF5831261C1900006E0F853
:10797000A3E0F9A3E0FAA3E0FBC00074372523F5E8
:1079800082E4340BF583E0FF3395E0FEFDFC7810D4
:1079900012615CD000EB2FFFEA3EFEE93DFDE83CC2
:1079A000FC9000061261C1E52325E025E0247DF569
:1079B00082E43409F583E0FCA3E0FDA3E0FEA3E04C
:1079C000FFE4FBFA7980783F125B7D603890000617
:1079D000E0FCA3E0FDA3E0FEA3E0FFEC125BF6E514
:1079E0002325E025E0247DF582E43409F583E0F8E1
:1079F000A3E0F9A3E0FAA3E0FB1259D7125C34909C
:107A000000061261C1900006E0FCA3E0FDA3E0FEC9
:107A1000A3E0FFE52325E025E02423F582E4340BF1
:107A2000F5831261C122900A2EE024FE7003027ACF
:107A3000EA147003027BE3146076147003027BD0B7
:107A400024046003027C0412AF7B900939E0FCA39C
:107A5000E0FDA3E0FEA3E0FF900C1E1261C19009BF
:107A60003DE0FCA3E0FDA3E0FEA3E0FF900C2212AA
:107A700061C1900941E0FCA3E0FDA3E0FEA3E0FFAB
:107A8000900C261261C1E4FFFEFDFC900AFE12611B
:107A9000C1E4FFFEFDFC900B021261C1900B16E0E9
:107AA000540370057F0312B021900A2E7404F02253
:107AB000900C2AE004F0E0640A6003027C04F07F8A
:107AC000997E19FDFC9009391261C1E4FFFEFDFCAD
:107AD00090093D1261C1E47FCC7E4CFDFC900941D0
:107AE0001261C1900A2E7402F022900AFEE0FCA3FB
:107AF000E0FDA3E0FEA3E0245BFFE43EFEE43DFDE9
:107B0000E43CFC900AFE1261C1900B02E0FCA3E091
:107B1000FDA3E0FEA3E0C3945BFFEE9400FEED94B2
:107B200000FDEC9400FC900B021261C1E47FE87E42
:107B300003FDFC900B2FE0F8A3E0F9A3E0FAA3E02B
:107B4000FBD312610E501DE47FE87E03FDFC900B19
:107B500033E0F8A3E0F9A3E0FAA3E0FB12610E50D2
:107B600003027C049009A6E0A3E0A3E0FFA3E09059
:107B70000A22CFF0A3EFF0900C1EE0FCA3E0FDA3DF
:107B8000E0FEA3E0FF9009391261C1900C22E0FCF5
:107B9000A3E0FDA3E0FEA3E0FF90093D1261C190C8
:107BA0000C26E0FCA3E0FDA3E0FEA3E0FF9009416A
:107BB0001261C1E4FFFEFDFC900AFE1261C1E4FF08
:107BC000FEFDFC900B021261C1900A2E7405F0229A
:107BD000900C2AE004F0E0640A7029F0900A2E74F8
:107BE00003F022900B16E054037004FF12B0217FC3
:107BF000087E00129580E4FFFE129580E4900A2E24
:107C0000F012AF74229009F5E0FBB4022B900A7ACF
:107C1000E0FEA3E0FFEE3395E0FDFC900B06126161
:107C2000C1900A7CE0FEA3E0FFEE3395E0FDFC90FE
:107C30000B0A1261C1027CCEEBB4012A900A7AE0F1
:107C4000FEA3E0FFEE3395E0FDFC900B0E1261C148
:107C5000900A7CE0FEA3E0FFEE3395E0FDFC900B84
:107C6000121261C18068900A7AE0FEA3E0FFEE3351
:107C700095E0FDFC900AFE1261C1900AFEE0FCA3B3
:107C8000E0FDA3E0FEA3E0FF1261009009F6E0F939
:107C9000F812615C900AFE1261C1900A7CE0FEA3BA
:107CA000E0FFEE3395E0FDFC900B021261C1900BFA
:107CB00002E0FCA3E0FDA3E0FEA3E0FF1261009060
:107CC00009F7E0F9F812615C900B021261C19009AA
:107CD00089E07003027DBE9009F5E0FF6403600651
:107CE000EF6003027DBE90098AE0FCA3E0FDA3E003
:107CF000FEA3E0FF900AFEE0F8A3E0F9A3E0FAA3F8
:107D0000E0FBC312610E501490098AE0FCA3E0FD71
:107D1000A3E0FEA3E0FF900AFE1261C190098EE08D
:107D2000FCA3E0FDA3E0FEA3E0FF900B02E0F8A3BC
:107D3000E0F9A3E0FAA3E0FBC312610E501490092E
:107D40008EE0FCA3E0FDA3E0FEA3E0FF900B021297
:107D500061C1900992E0FCA3E0FDA3E0FEA3E0FF77
:107D6000900AFEE0F8A3E0F9A3E0FAA3E0FBD31247
:107D7000610E4014900992E0FCA3E0FDA3E0FEA395
:107D8000E0FF900AFE1261C1900996E0FCA3E0FDBD
:107D9000A3E0FEA3E0FF900B02E0F8A3E0F9A3E06C
:107DA000FAA3E0FBD312610E4014900996E0FCA305
:107DB000E0FDA3E0FEA3E0FF900B021261C1900B77
:107DC0004FE004F07006900B4EE004F02212B04B2E
:107DD00012A38BE47F64FEFDFC129A8A7F0112B02D
:107DE0002712AA3C12AD1112A7D812A8CF12AD3794
:107DF0007EB07F5612AA9F12AC8C7EB07F5312AA1F
:107E0000BE12AC79E4FF12AFA3E4FF12AFA9E4FF06
:107E100012AFC7E4FF12B02112AC9F12ACD812AC63
:107E2000C512ACB212AB6A7F0112B03FE4900006FB
:107E3000F0A3F0FBFA7D017F0212A423900000EF73
:107E4000F012A579900001EFF0E0FBFF90000674BE
:107E500086F07D067C00129B127B017A0B791BE970
:107E6000EAE4AB01900001E0FF7D107C4E129D081A
:107E7000900000E0FFA3E0FD12AAFC900000E0FFEC
:107E80007D0112A3D8E4FF12B02D12ACFE12ACEBB0
:107E9000D2AF9044F474FDF0E47F0AFEFDFC129A28
:107EA0008A7B02AF031BEF6018E4FFFEFDFCEB25AD
:107EB000E025E024A6F582E43409F5831261C1804F
:107EC000E27B03AF031BEF6024E4FFFEFDFCEB2528
:107ED000E025E02423F582E4340BF5831261C174BC
:107EE000372BF582E4340BF583E4F080D678FE7C02
:107EF0000A7D017B017A0979A67E007F1912632031
:107F000090096BE09009BEF012A1F0E4FF12AFCD32
:107F1000E4900AF9F0A3F0900AFDF09009BEE0FFAA
:107F200012B021E4900B74F0C20D900A2EF0C20A38
:107F3000900A25E070077F0112AFB58005E4FF12BB
:107F4000AFB5E4FF12B0091293B912AFC1EF7020C0
:107F5000300C0E7F0112AFAFC20CC20B128C4B80E3
:107F6000E9300BE67F0112AFAFE4900B16F080DA38
:107F70007F0112B00912AFC1EF640160F812AC6565
:107F8000EF30E7BE12A8CF80B922900003ECF0A337
:107F9000EDF0A3EAF0A3EBF0900008E0FED394002C
:107FA000500302812AEED39401400302812AEF2478
:107FB000FC601524FD603C14606224FE70030280A6
:107FC000452409600302806E900007E0D3940F40BF
:107FD000117B0C7A01791812AE6C900009EFF00257
:107FE00080737B0C7A01791C12AE6C900009EFF063
:107FF000028073900007E0D3940F40107B0C7A014D
:10800000791912AE6C900009EFF080677B0C7A0151
:10801000791D12AE6C900009EFF08057900007E0D8
:10802000D3940F40107B0C7A01791A12AE6C900039
:1080300009EFF0803E7B0C7A01791E12AE6C900045
:1080400009EFF0802E900007E0D3940F40107B0CD6
:108050007A01791B12AE6C900009EFF080157B0C51
:108060007A01791F12AE6C900009EFF08005E49060
:108070000009F0900009E0FF3395E0FEFDFCE47B91
:1080800020FAF9F8125FD6A804A905AA06AB079052
:108090000003E0FEA3E0FFE4FCFDEB2FFFEA3EFE61
:1080A000ED39FDEC38FCAB07AA06A905F8A3E0FE04
:1080B000A3E0FFE4FCFD125FD6E4FB7A80F9F8123E
:1080C0006061AD07AC06900007E0C3940E502FE04E
:1080D000FBC3740E9BFFEDA807088005CEC313CE2B
:1080E00013D8F9FDAC06EB04FF900008E075F0032F
:1080F000A424C6F582E4340CF583EFF080149000DC
:1081000008E075F003A424C6F582E4340CF583740A
:108110000FF0AF05900008E075F003A424C4F582C9
:10812000E4340CF583ECF0A3EFF0229009C0740165
:10813000F07F677EE67DFF7CFFA31261C1E4FFFE56
:10814000FDFC9009C51261C17F347E337DFF7CFF49
:108150009009C91261C1E4FFFE7D03FC9009CD12B4
:1081600061C1E4FFFEFDFC9009D11261C1E4FFFE94
:10817000FDFC9009D51261C17F347EB37DFF7CFF89
:108180009009D91261C1E4FFFEFDFC9009DD126186
:10819000C17FE27EFA7DFF7CFF9009E11261C1E4BC
:1081A0007FCC7ECCFDFC9009E51261C1E4FFFEFDB1
:1081B000FC9009E91261C1E47FCC7E0CFDFC9009C2
:1081C000ED1261C1E49009F3F0A3F0A3F0900A2549
:1081D00074FAF0900A117401F0E4FBEBC3940250BE
:1081E000347FD07E8A7DFF7CFFEB25E025E02412E2
:1081F000F582E4340AF5831261C1E47F307E75FDB7
:10820000FCEB25E025E0241AF582E4340AF583121C
:1082100061C10B80C6E4FBEBC394035028E4FFFE6E
:108220007D807C3FEB25E025E02405F582E4340ADF
:10823000F5831261C174F62BF582E43409F5837479
:1082400001F00B80D2E4FFFEFDFC9009F6E0F9F8A6
:1082500012615C9009F91261C1E4FFFEFDFC900916
:10826000F7E0F9F812615C9009FD1261C1E4FFFECC
:10827000FDFC9009F8E0F9F812615C900A011261C6
:10828000C1E47FB87E0BFDFC9009F6E0F9F81261BD
:108290005C900A22EEF0A3EFF09009F17405F0A3D0
:1082A00074DCF09009BF7401F0E4FFFE129580EFDA
:1082B000600E7F087E00129580EF60047F018002CF
:1082C0007F0022900A79E0900002F07B017A0A791F
:1082D00079900AF9E0A3E014FD12A80B900AF9E0E6
:1082E000FCA3E02478F582740A3CF583E0B507032B
:1082F000D38001C34006E4900AFDF022900002E022
:108300001261ED83D60083A70183DB0383E004833E
:10831000F805838B06842009840C0A84430B83BBF5
:108320000C837380837F81836182834F838349843D
:10833000835585835B86836787836D89844F8A83B2
:10834000798F83859000008452129B990284521287
:108350009EDD02845212A14202845212984202848B
:1083600052127C050284521285DE02845212A0232E
:108370000284521291D102845212A4F80284521241
:10838000A63002845212AA7F028452900A7AE0FE3A
:10839000A3E0FF12AB51900B5FE004F07006900B6E
:1083A0005EE004F00284521290C5900B61E004F08C
:1083B0007006900B60E004F0028452900A7AE0FEAE
:1083C000A3E0FF1238F3900B63E004F07006900B0B
:1083D00062E004F0807C12A9F880771273D2807278
:1083E0007F087E00129580EF60077F0112AC11803C
:1083F00061E4FF12AC11805A12A46DEF60077F0197
:1084000012AC11804DE4FF12AC11804612812BEFAB
:1084100060077F0112AC118039E4FF12AC11803289
:108420007F0112AC11E47FE87E03FDFC129A8AE41E
:10843000FF12B027E47FE87E03FDFC129A8A12AF98
:1084400017800F900A2E7401F0FF12AC11800312F6
:10845000875DE4900AFDF0227B007A4079807D02FE
:108460007C0012ADAC9040827418F07B007A4079A9
:1084700084E4FDFC12ADAC9040867450F07B007A31
:108480004079887DFF7C0F12ADAC90408A741BF060
:108490007B007A40798C7D0B7C0012ADAC90408ED5
:1084A0007419F07B007A4079907D2F7C0012ADAC7E
:1084B0009040927418F07B007A4079947DEF7C00B4
:1084C00012ADAC9040967418F07B087A1F79F89042
:1084D000000AE4F0A37441F0A3E4F07F04FE12A7C5
:1084E000A49043007406F09042007452F07B0C7A22
:1084F00001790F12AE6C9046A1EFF07B007A4279C1
:10850000227D107C0712ADAC7B007A4279207D5130
